{
  "address": "0x9dbec436843B2f12BAf8A372CC210a0dA8c10281",
  "abi": [
    {
      "inputs": [
        {
          "internalType": "string",
          "name": "_tld",
          "type": "string"
        },
        {
          "internalType": "address",
          "name": "_trustedForwarder",
          "type": "address"
        },
        {
          "internalType": "address",
          "name": "_marketplaceAddress",
          "type": "address"
        },
        {
          "internalType": "address",
          "name": "_relayerAddress",
          "type": "address"
        }
      ],
      "stateMutability": "payable",
      "type": "constructor"
    },
    {
      "inputs": [],
      "name": "AlreadyRegistered",
      "type": "error"
    },
    {
      "inputs": [
        {
          "internalType": "address",
          "name": "sender",
          "type": "address"
        },
        {
          "internalType": "uint256",
          "name": "tokenId",
          "type": "uint256"
        },
        {
          "internalType": "address",
          "name": "owner",
          "type": "address"
        }
      ],
      "name": "ERC721IncorrectOwner",
      "type": "error"
    },
    {
      "inputs": [
        {
          "internalType": "address",
          "name": "operator",
          "type": "address"
        },
        {
          "internalType": "uint256",
          "name": "tokenId",
          "type": "uint256"
        }
      ],
      "name": "ERC721InsufficientApproval",
      "type": "error"
    },
    {
      "inputs": [
        {
          "internalType": "address",
          "name": "approver",
          "type": "address"
        }
      ],
      "name": "ERC721InvalidApprover",
      "type": "error"
    },
    {
      "inputs": [
        {
          "internalType": "address",
          "name": "operator",
          "type": "address"
        }
      ],
      "name": "ERC721InvalidOperator",
      "type": "error"
    },
    {
      "inputs": [
        {
          "internalType": "address",
          "name": "owner",
          "type": "address"
        }
      ],
      "name": "ERC721InvalidOwner",
      "type": "error"
    },
    {
      "inputs": [
        {
          "internalType": "address",
          "name": "receiver",
          "type": "address"
        }
      ],
      "name": "ERC721InvalidReceiver",
      "type": "error"
    },
    {
      "inputs": [
        {
          "internalType": "address",
          "name": "sender",
          "type": "address"
        }
      ],
      "name": "ERC721InvalidSender",
      "type": "error"
    },
    {
      "inputs": [
        {
          "internalType": "uint256",
          "name": "tokenId",
          "type": "uint256"
        }
      ],
      "name": "ERC721NonexistentToken",
      "type": "error"
    },
    {
      "inputs": [
        {
          "internalType": "string",
          "name": "name",
          "type": "string"
        }
      ],
      "name": "InvalidName",
      "type": "error"
    },
    {
      "inputs": [],
      "name": "Unauthorized",
      "type": "error"
    },
    {
      "anonymous": false,
      "inputs": [
        {
          "indexed": true,
          "internalType": "address",
          "name": "owner",
          "type": "address"
        },
        {
          "indexed": true,
          "internalType": "address",
          "name": "approved",
          "type": "address"
        },
        {
          "indexed": true,
          "internalType": "uint256",
          "name": "tokenId",
          "type": "uint256"
        }
      ],
      "name": "Approval",
      "type": "event"
    },
    {
      "anonymous": false,
      "inputs": [
        {
          "indexed": true,
          "internalType": "address",
          "name": "owner",
          "type": "address"
        },
        {
          "indexed": true,
          "internalType": "address",
          "name": "operator",
          "type": "address"
        },
        {
          "indexed": false,
          "internalType": "bool",
          "name": "approved",
          "type": "bool"
        }
      ],
      "name": "ApprovalForAll",
      "type": "event"
    },
    {
      "anonymous": false,
      "inputs": [
        {
          "indexed": false,
          "internalType": "uint256",
          "name": "_fromTokenId",
          "type": "uint256"
        },
        {
          "indexed": false,
          "internalType": "uint256",
          "name": "_toTokenId",
          "type": "uint256"
        }
      ],
      "name": "BatchMetadataUpdate",
      "type": "event"
    },
    {
      "anonymous": false,
      "inputs": [
        {
          "indexed": false,
          "internalType": "uint256",
          "name": "tokenId",
          "type": "uint256"
        }
      ],
      "name": "DomainExpired",
      "type": "event"
    },
    {
      "anonymous": false,
      "inputs": [
        {
          "indexed": false,
          "internalType": "uint256",
          "name": "tokenId",
          "type": "uint256"
        },
        {
          "indexed": false,
          "internalType": "address",
          "name": "newOwner",
          "type": "address"
        }
      ],
      "name": "DomainTransferred",
      "type": "event"
    },
    {
      "anonymous": false,
      "inputs": [
        {
          "indexed": true,
          "internalType": "address",
          "name": "sender",
          "type": "address"
        },
        {
          "indexed": false,
          "internalType": "uint256",
          "name": "amount",
          "type": "uint256"
        }
      ],
      "name": "FallbackReceived",
      "type": "event"
    },
    {
      "anonymous": false,
      "inputs": [
        {
          "indexed": false,
          "internalType": "uint256",
          "name": "_tokenId",
          "type": "uint256"
        }
      ],
      "name": "MetadataUpdate",
      "type": "event"
    },
    {
      "anonymous": false,
      "inputs": [
        {
          "indexed": true,
          "internalType": "address",
          "name": "sender",
          "type": "address"
        },
        {
          "indexed": false,
          "internalType": "uint256",
          "name": "amount",
          "type": "uint256"
        }
      ],
      "name": "Received",
      "type": "event"
    },
    {
      "anonymous": false,
      "inputs": [
        {
          "indexed": false,
          "internalType": "address",
          "name": "owner",
          "type": "address"
        },
        {
          "indexed": false,
          "internalType": "string",
          "name": "name",
          "type": "string"
        }
      ],
      "name": "Register",
      "type": "event"
    },
    {
      "anonymous": false,
      "inputs": [
        {
          "indexed": false,
          "internalType": "address",
          "name": "owner",
          "type": "address"
        },
        {
          "indexed": false,
          "internalType": "string",
          "name": "name",
          "type": "string"
        },
        {
          "indexed": false,
          "internalType": "string",
          "name": "record",
          "type": "string"
        }
      ],
      "name": "SetRecord",
      "type": "event"
    },
    {
      "anonymous": false,
      "inputs": [
        {
          "indexed": true,
          "internalType": "address",
          "name": "from",
          "type": "address"
        },
        {
          "indexed": true,
          "internalType": "address",
          "name": "to",
          "type": "address"
        },
        {
          "indexed": true,
          "internalType": "uint256",
          "name": "tokenId",
          "type": "uint256"
        }
      ],
      "name": "Transfer",
      "type": "event"
    },
    {
      "stateMutability": "payable",
      "type": "fallback"
    },
    {
      "inputs": [
        {
          "internalType": "address",
          "name": "to",
          "type": "address"
        },
        {
          "internalType": "uint256",
          "name": "tokenId",
          "type": "uint256"
        }
      ],
      "name": "approve",
      "outputs": [],
      "stateMutability": "nonpayable",
      "type": "function"
    },
    {
      "inputs": [
        {
          "internalType": "address",
          "name": "owner",
          "type": "address"
        }
      ],
      "name": "balanceOf",
      "outputs": [
        {
          "internalType": "uint256",
          "name": "",
          "type": "uint256"
        }
      ],
      "stateMutability": "view",
      "type": "function"
    },
    {
      "inputs": [
        {
          "internalType": "uint256",
          "name": "tokenId",
          "type": "uint256"
        }
      ],
      "name": "checkExpiration",
      "outputs": [],
      "stateMutability": "nonpayable",
      "type": "function"
    },
    {
      "inputs": [
        {
          "internalType": "string",
          "name": "_name",
          "type": "string"
        }
      ],
      "name": "checkRegistered",
      "outputs": [
        {
          "internalType": "bool",
          "name": "",
          "type": "bool"
        }
      ],
      "stateMutability": "view",
      "type": "function"
    },
    {
      "inputs": [
        {
          "internalType": "string",
          "name": "",
          "type": "string"
        }
      ],
      "name": "domains",
      "outputs": [
        {
          "internalType": "address",
          "name": "",
          "type": "address"
        }
      ],
      "stateMutability": "view",
      "type": "function"
    },
    {
      "inputs": [
        {
          "internalType": "uint256",
          "name": "",
          "type": "uint256"
        }
      ],
      "name": "expirationDates",
      "outputs": [
        {
          "internalType": "uint256",
          "name": "",
          "type": "uint256"
        }
      ],
      "stateMutability": "view",
      "type": "function"
    },
    {
      "inputs": [
        {
          "internalType": "string",
          "name": "name",
          "type": "string"
        }
      ],
      "name": "getAddress",
      "outputs": [
        {
          "internalType": "address",
          "name": "",
          "type": "address"
        }
      ],
      "stateMutability": "view",
      "type": "function"
    },
    {
      "inputs": [],
      "name": "getAllNames",
      "outputs": [
        {
          "internalType": "string[]",
          "name": "",
          "type": "string[]"
        }
      ],
      "stateMutability": "view",
      "type": "function"
    },
    {
      "inputs": [
        {
          "internalType": "uint256",
          "name": "tokenId",
          "type": "uint256"
        }
      ],
      "name": "getApproved",
      "outputs": [
        {
          "internalType": "address",
          "name": "",
          "type": "address"
        }
      ],
      "stateMutability": "view",
      "type": "function"
    },
    {
      "inputs": [
        {
          "internalType": "address",
          "name": "_owner",
          "type": "address"
        }
      ],
      "name": "getDomainsByOwner",
      "outputs": [
        {
          "internalType": "string[]",
          "name": "",
          "type": "string[]"
        }
      ],
      "stateMutability": "view",
      "type": "function"
    },
    {
      "inputs": [
        {
          "internalType": "string",
          "name": "name",
          "type": "string"
        }
      ],
      "name": "getRecord",
      "outputs": [
        {
          "internalType": "string",
          "name": "",
          "type": "string"
        }
      ],
      "stateMutability": "view",
      "type": "function"
    },
    {
      "inputs": [
        {
          "internalType": "address",
          "name": "owner",
          "type": "address"
        },
        {
          "internalType": "address",
          "name": "operator",
          "type": "address"
        }
      ],
      "name": "isApprovedForAll",
      "outputs": [
        {
          "internalType": "bool",
          "name": "",
          "type": "bool"
        }
      ],
      "stateMutability": "view",
      "type": "function"
    },
    {
      "inputs": [],
      "name": "isOwner",
      "outputs": [
        {
          "internalType": "bool",
          "name": "",
          "type": "bool"
        }
      ],
      "stateMutability": "view",
      "type": "function"
    },
    {
      "inputs": [
        {
          "internalType": "address",
          "name": "forwarder",
          "type": "address"
        }
      ],
      "name": "isTrustedForwarder",
      "outputs": [
        {
          "internalType": "bool",
          "name": "",
          "type": "bool"
        }
      ],
      "stateMutability": "view",
      "type": "function"
    },
    {
      "inputs": [],
      "name": "marketplaceAddress",
      "outputs": [
        {
          "internalType": "address",
          "name": "",
          "type": "address"
        }
      ],
      "stateMutability": "view",
      "type": "function"
    },
    {
      "inputs": [],
      "name": "name",
      "outputs": [
        {
          "internalType": "string",
          "name": "",
          "type": "string"
        }
      ],
      "stateMutability": "view",
      "type": "function"
    },
    {
      "inputs": [
        {
          "internalType": "uint256",
          "name": "",
          "type": "uint256"
        }
      ],
      "name": "names",
      "outputs": [
        {
          "internalType": "string",
          "name": "",
          "type": "string"
        }
      ],
      "stateMutability": "view",
      "type": "function"
    },
    {
      "inputs": [],
      "name": "owner",
      "outputs": [
        {
          "internalType": "address payable",
          "name": "",
          "type": "address"
        }
      ],
      "stateMutability": "view",
      "type": "function"
    },
    {
      "inputs": [
        {
          "internalType": "address",
          "name": "",
          "type": "address"
        },
        {
          "internalType": "uint256",
          "name": "",
          "type": "uint256"
        }
      ],
      "name": "ownerDomains",
      "outputs": [
        {
          "internalType": "string",
          "name": "",
          "type": "string"
        }
      ],
      "stateMutability": "view",
      "type": "function"
    },
    {
      "inputs": [
        {
          "internalType": "uint256",
          "name": "tokenId",
          "type": "uint256"
        }
      ],
      "name": "ownerOf",
      "outputs": [
        {
          "internalType": "address",
          "name": "",
          "type": "address"
        }
      ],
      "stateMutability": "view",
      "type": "function"
    },
    {
      "inputs": [
        {
          "internalType": "string",
          "name": "name",
          "type": "string"
        },
        {
          "internalType": "uint256",
          "name": "_years",
          "type": "uint256"
        }
      ],
      "name": "price",
      "outputs": [
        {
          "internalType": "uint256",
          "name": "",
          "type": "uint256"
        }
      ],
      "stateMutability": "pure",
      "type": "function"
    },
    {
      "inputs": [
        {
          "internalType": "string",
          "name": "",
          "type": "string"
        }
      ],
      "name": "records",
      "outputs": [
        {
          "internalType": "string",
          "name": "",
          "type": "string"
        }
      ],
      "stateMutability": "view",
      "type": "function"
    },
    {
      "inputs": [
        {
          "internalType": "address",
          "name": "to",
          "type": "address"
        },
        {
          "internalType": "string",
          "name": "name",
          "type": "string"
        },
        {
          "internalType": "uint256",
          "name": "_years",
          "type": "uint256"
        }
      ],
      "name": "register",
      "outputs": [],
      "stateMutability": "payable",
      "type": "function"
    },
    {
      "inputs": [],
      "name": "relayerAddress",
      "outputs": [
        {
          "internalType": "address",
          "name": "",
          "type": "address"
        }
      ],
      "stateMutability": "view",
      "type": "function"
    },
    {
      "inputs": [
        {
          "internalType": "address",
          "name": "from",
          "type": "address"
        },
        {
          "internalType": "address",
          "name": "to",
          "type": "address"
        },
        {
          "internalType": "uint256",
          "name": "tokenId",
          "type": "uint256"
        }
      ],
      "name": "safeTransferFrom",
      "outputs": [],
      "stateMutability": "nonpayable",
      "type": "function"
    },
    {
      "inputs": [
        {
          "internalType": "address",
          "name": "from",
          "type": "address"
        },
        {
          "internalType": "address",
          "name": "to",
          "type": "address"
        },
        {
          "internalType": "uint256",
          "name": "tokenId",
          "type": "uint256"
        },
        {
          "internalType": "bytes",
          "name": "data",
          "type": "bytes"
        }
      ],
      "name": "safeTransferFrom",
      "outputs": [],
      "stateMutability": "nonpayable",
      "type": "function"
    },
    {
      "inputs": [
        {
          "internalType": "address",
          "name": "operator",
          "type": "address"
        },
        {
          "internalType": "bool",
          "name": "approved",
          "type": "bool"
        }
      ],
      "name": "setApprovalForAll",
      "outputs": [],
      "stateMutability": "nonpayable",
      "type": "function"
    },
    {
      "inputs": [
        {
          "internalType": "string",
          "name": "name",
          "type": "string"
        },
        {
          "internalType": "string",
          "name": "record",
          "type": "string"
        }
      ],
      "name": "setRecord",
      "outputs": [],
      "stateMutability": "nonpayable",
      "type": "function"
    },
    {
      "inputs": [
        {
          "internalType": "bytes4",
          "name": "interfaceId",
          "type": "bytes4"
        }
      ],
      "name": "supportsInterface",
      "outputs": [
        {
          "internalType": "bool",
          "name": "",
          "type": "bool"
        }
      ],
      "stateMutability": "view",
      "type": "function"
    },
    {
      "inputs": [],
      "name": "symbol",
      "outputs": [
        {
          "internalType": "string",
          "name": "",
          "type": "string"
        }
      ],
      "stateMutability": "view",
      "type": "function"
    },
    {
      "inputs": [],
      "name": "tld",
      "outputs": [
        {
          "internalType": "string",
          "name": "",
          "type": "string"
        }
      ],
      "stateMutability": "view",
      "type": "function"
    },
    {
      "inputs": [
        {
          "internalType": "uint256",
          "name": "tokenId",
          "type": "uint256"
        }
      ],
      "name": "tokenURI",
      "outputs": [
        {
          "internalType": "string",
          "name": "",
          "type": "string"
        }
      ],
      "stateMutability": "view",
      "type": "function"
    },
    {
      "inputs": [
        {
          "internalType": "address",
          "name": "from",
          "type": "address"
        },
        {
          "internalType": "address",
          "name": "to",
          "type": "address"
        },
        {
          "internalType": "uint256",
          "name": "tokenId",
          "type": "uint256"
        }
      ],
      "name": "transferFrom",
      "outputs": [],
      "stateMutability": "nonpayable",
      "type": "function"
    },
    {
      "inputs": [],
      "name": "trustedForwarder",
      "outputs": [
        {
          "internalType": "address",
          "name": "",
          "type": "address"
        }
      ],
      "stateMutability": "view",
      "type": "function"
    },
    {
      "inputs": [
        {
          "internalType": "string",
          "name": "name",
          "type": "string"
        },
        {
          "internalType": "address",
          "name": "_address",
          "type": "address"
        },
        {
          "internalType": "uint256",
          "name": "_tokenId",
          "type": "uint256"
        },
        {
          "internalType": "uint256",
          "name": "_years",
          "type": "uint256"
        }
      ],
      "name": "updateAddress",
      "outputs": [],
      "stateMutability": "nonpayable",
      "type": "function"
    },
    {
      "inputs": [],
      "name": "withdraw",
      "outputs": [],
      "stateMutability": "nonpayable",
      "type": "function"
    },
    {
      "stateMutability": "payable",
      "type": "receive"
    }
  ],
  "transactionHash": "0x1b88ee8705d030acb658644bb671bd42df39a08a74403f5f956ce6222a5b06de",
  "args": [
    "xene",
    "0x62CD2CBC855746c16FD16b4E5b34110e1549fc2e",
    "0x3c955E552Fd383435765313330301c23f014e0a6",
    "0x51908F598A5e0d8F1A3bAbFa6DF76F9704daD072"
  ],
  "numDeployments": 9,
  "solcInputHash": "f483995667f1b695b9f9af3a63e738c6",
  "bytecode": "0x61094060405261086b60a08181529062003b0360c039600890620000249082620002c8565b5060408051808201909152600d81526c1e17ba32bc3a1f1e17b9bb339f60991b6020820152600990620000589082620002c8565b506040516200436e3803806200436e8339810160408190526200007b91620003d7565b826040518060400160405280601981526020017f58656e656120446f6d61696e204e616d65205365727669636500000000000000815250604051806040016040528060038152602001622c222760e91b8152508160009081620000df9190620002c8565b506001620000ee8282620002c8565b5050506001600160a01b0316608052600d80546001600160a01b03191633179055600c6200011d8582620002c8565b50600a80546001600160a01b038085166001600160a01b031992831617909255600b80549284169290911691909117905560408051808201909152601881527f2573206e616d652073657276696365206465706c6f796564000000000000000060208201526200018e908562000198565b5050505062000529565b620001e58282604051602401620001b1929190620004f7565b60408051601f198184030181529190526020810180516001600160e01b03908116634b5c427760e01b17909152620001e916565b5050565b620001ff816200020260201b620017a21760201c565b50565b60006a636f6e736f6c652e6c6f679050600080835160208501845afa505050565b634e487b7160e01b600052604160045260246000fd5b600181811c908216806200024e57607f821691505b6020821081036200026f57634e487b7160e01b600052602260045260246000fd5b50919050565b601f821115620002c357600081815260208120601f850160051c810160208610156200029e5750805b601f850160051c820191505b81811015620002bf57828155600101620002aa565b5050505b505050565b81516001600160401b03811115620002e457620002e462000223565b620002fc81620002f5845462000239565b8462000275565b602080601f8311600181146200033457600084156200031b5750858301515b600019600386901b1c1916600185901b178555620002bf565b600085815260208120601f198616915b82811015620003655788860151825594840194600190910190840162000344565b5085821015620003845787850151600019600388901b60f8161c191681555b5050505050600190811b01905550565b60005b83811015620003b157818101518382015260200162000397565b50506000910152565b80516001600160a01b0381168114620003d257600080fd5b919050565b60008060008060808587031215620003ee57600080fd5b84516001600160401b03808211156200040657600080fd5b818701915087601f8301126200041b57600080fd5b81518181111562000430576200043062000223565b604051601f8201601f19908116603f011681019083821181831017156200045b576200045b62000223565b816040528281528a60208487010111156200047557600080fd5b6200048883602083016020880162000394565b80985050505050506200049e60208601620003ba565b9250620004ae60408601620003ba565b9150620004be60608601620003ba565b905092959194509250565b60008151808452620004e381602086016020860162000394565b601f01601f19169290920160200192915050565b6040815260006200050c6040830185620004c9565b8281036020840152620005208185620004c9565b95945050505050565b6080516135b76200054c600039600081816105880152610c8c01526135b76000f3fe6080604052600436106102135760003560e01c80636fc0bb0511610118578063bf40fac1116100a0578063daa17f491161006f578063daa17f49146106c1578063e985e9c5146106e1578063f38ffb6c14610701578063fb825e5f1461072e578063fc0d1b841461074357610250565b8063bf40fac114610641578063c1880a9814610661578063c87b56dd14610681578063d0220dbd146106a157610250565b80638da5cb5b116100e75780638da5cb5b146105ac5780638f32d59b146105cc57806395d89b41146105ec578063a22cb46514610601578063b88d4fde1461062157610250565b80636fc0bb051461051957806370a0823114610539578063723931ca146105595780637da0a8771461057957610250565b80632d5514321161019b5780634737e1a01161016a5780634737e1a01461046c578063541e771d1461048c578063572b6c05146104ac5780636352211e146104cc57806368bb9e7d146104ec57610250565b80632d551432146104025780633ccfd60b1461041757806342842e0e1461042c5780634622ab031461044c57610250565b806311dd8845116101e257806311dd88451461033357806318a7cca81461035357806319b989a01461037357806323b872dd146103a157806326449235146103c157610250565b806301ffc9a71461028257806306fdde03146102b7578063081812fc146102d9578063095ea7b31461031157610250565b366102505760405134815233907f88a5966d370b9919b20f3e2c13ff65706f196a4e32cc2c12bf57088f88525874906020015b60405180910390a2005b60405134815233907f50780da79649c77c3362903a681320ab494fb174e23e597f79463f264603689e90602001610246565b34801561028e57600080fd5b506102a261029d366004612837565b610756565b60405190151581526020015b60405180910390f35b3480156102c357600080fd5b506102cc610781565b6040516102ae91906128a4565b3480156102e557600080fd5b506102f96102f43660046128b7565b610813565b6040516001600160a01b0390911681526020016102ae565b34801561031d57600080fd5b5061033161032c3660046128e7565b61083c565b005b34801561033f57600080fd5b506102cc61034e366004612959565b610852565b34801561035f57600080fd5b50600b546102f9906001600160a01b031681565b34801561037f57600080fd5b5061039361038e36600461299a565b610905565b6040519081526020016102ae565b3480156103ad57600080fd5b506103316103bc3660046129e5565b6109a8565b3480156103cd57600080fd5b506102f96103dc366004612aac565b8051602081830181018051600e825292820191909301209152546001600160a01b031681565b34801561040e57600080fd5b506102cc610a3f565b34801561042357600080fd5b50610331610acd565b34801561043857600080fd5b506103316104473660046129e5565b610b7e565b34801561045857600080fd5b506102cc6104673660046128b7565b610b9e565b34801561047857600080fd5b50610331610487366004612af4565b610bb7565b34801561049857600080fd5b506102cc6104a7366004612aac565b610c66565b3480156104b857600080fd5b506102a26104c7366004612b59565b610c8a565b3480156104d857600080fd5b506102f96104e73660046128b7565b610cbc565b3480156104f857600080fd5b506103936105073660046128b7565b60126020526000908152604090205481565b34801561052557600080fd5b506102a2610534366004612aac565b610cc7565b34801561054557600080fd5b50610393610554366004612b59565b610d16565b34801561056557600080fd5b506103316105743660046128b7565b610d5e565b34801561058557600080fd5b507f00000000000000000000000000000000000000000000000000000000000000006102f9565b3480156105b857600080fd5b50600d546102f9906001600160a01b031681565b3480156105d857600080fd5b50600d546001600160a01b031633146102a2565b3480156105f857600080fd5b506102cc610eaa565b34801561060d57600080fd5b5061033161061c366004612b74565b610eb9565b34801561062d57600080fd5b5061033161063c366004612bb0565b610ecb565b34801561064d57600080fd5b506102f961065c366004612959565b610ee2565b34801561066d57600080fd5b5061033161067c366004612c2b565b610f17565b34801561068d57600080fd5b506102cc61069c3660046128b7565b610fd7565b3480156106ad57600080fd5b506102cc6106bc3660046128e7565b6110e8565b3480156106cd57600080fd5b50600a546102f9906001600160a01b031681565b3480156106ed57600080fd5b506102a26106fc366004612c96565b611120565b34801561070d57600080fd5b5061072161071c366004612b59565b61114e565b6040516102ae9190612cc9565b34801561073a57600080fd5b5061072161123d565b610331610751366004612d2b565b611401565b60006001600160e01b03198216632483248360e11b148061077b575061077b826117c3565b92915050565b60606000805461079090612d84565b80601f01602080910402602001604051908101604052809291908181526020018280546107bc90612d84565b80156108095780601f106107de57610100808354040283529160200191610809565b820191906000526020600020905b8154815290600101906020018083116107ec57829003601f168201915b5050505050905090565b600061081e82611813565b506000828152600460205260409020546001600160a01b031661077b565b61084e828261084961184c565b611876565b5050565b6060600f8383604051610866929190612dbe565b9081526020016040518091039020805461087f90612d84565b80601f01602080910402602001604051908101604052809291908181526020018280546108ab90612d84565b80156108f85780601f106108cd576101008083540402835291602001916108f8565b820191906000526020600020905b8154815290600101906020018083116108db57829003601f168201915b5050505050905092915050565b60008061094785858080601f01602080910402602001604051908101604052809392919081815260200183838082843760009201919091525061188392505050565b90506000811161095657600080fd5b806003036109775761096f8366038d7ea4c68000612de4565b9150506109a1565b806004036109905761096f83660aa87bee538000612de4565b61096f836611c37937e08000612de4565b9392505050565b6001600160a01b0382166109d757604051633250574960e11b8152600060048201526024015b60405180910390fd5b60006109eb83836109e661184c565b611986565b9050836001600160a01b0316816001600160a01b031614610a39576040516364283d7b60e01b81526001600160a01b03808616600483015260248201849052821660448201526064016109ce565b50505050565b600c8054610a4c90612d84565b80601f0160208091040260200160405190810160405280929190818152602001828054610a7890612d84565b8015610ac55780601f10610a9a57610100808354040283529160200191610ac5565b820191906000526020600020905b815481529060010190602001808311610aa857829003601f168201915b505050505081565b600d546001600160a01b03163314610ae457600080fd5b6040514790600090339083908381818185875af1925050503d8060008114610b28576040519150601f19603f3d011682016040523d82523d6000602084013e610b2d565b606091505b505090508061084e5760405162461bcd60e51b815260206004820152601860248201527f4661696c656420746f207769746864726177204d61746963000000000000000060448201526064016109ce565b610b9983838360405180602001604052806000815250610ecb565b505050565b60106020526000908152604090208054610a4c90612d84565b82600e8686604051610bca929190612dbe565b90815260405190819003602001902080546001600160a01b03929092166001600160a01b0319909216919091179055610c07816301e13380612de4565b610c119042612dfb565b6000838152601260205260409081902091909155517f6ba0831d2f62ae5cbf7214bcc1d79c5da1d705f12811efda0beaa840006f874e90610c5790859088908890612e37565b60405180910390a15050505050565b8051602081830181018051600f8252928201919093012091528054610a4c90612d84565b7f00000000000000000000000000000000000000000000000000000000000000006001600160a01b0390811691161490565b600061077b82611813565b6000806001600160a01b0316600e83604051610ce39190612e65565b908152604051908190036020019020546001600160a01b031603610d0957506001919050565b506000919050565b919050565b60006001600160a01b038216610d42576040516322718ad960e21b8152600060048201526024016109ce565b506001600160a01b031660009081526003602052604090205490565b600081815260126020526040902054421115610ea757610d7d81611a7f565b60008181526010602052604081208054610d9690612d84565b80601f0160208091040260200160405190810160405280929190818152602001828054610dc290612d84565b8015610e0f5780601f10610de457610100808354040283529160200191610e0f565b820191906000526020600020905b815481529060010190602001808311610df257829003601f168201915b50505050509050600e81604051610e269190612e65565b908152604080516020928190038301902080546001600160a01b0319169055600084815260109092528120610e5a916127d3565b60008281526012602052604080822091909155517f07e6adf5c6d87cbc1881e55c0e46397ce173ab54d5bd97c0d588ee29e803b5ba90610e9d9084815260200190565b60405180910390a1505b50565b60606001805461079090612d84565b61084e610ec461184c565b8383611ddc565b610ed68484846109a8565b610a3984848484611e7b565b6000600e8383604051610ef6929190612dbe565b908152604051908190036020019020546001600160a01b0316905092915050565b600e8484604051610f29929190612dbe565b90815260405190819003602001902054336001600160a01b0390911614610f62576040516282b42960e81b815260040160405180910390fd5b8181600f8686604051610f76929190612dbe565b90815260200160405180910390209182610f91929190612ee4565b507f0eeb47f1c4b5cf67d1615dac4f20b4072bf588c02f4575b0f658354982de710e3385858585604051610fc9959493929190612f9d565b60405180910390a150505050565b6060610fe282611813565b5060008281526006602052604081208054610ffc90612d84565b80601f016020809104026020016040519081016040528092919081815260200182805461102890612d84565b80156110755780601f1061104a57610100808354040283529160200191611075565b820191906000526020600020905b81548152906001019060200180831161105857829003601f168201915b50505050509050600061109360408051602081019091526000815290565b905080516000036110a5575092915050565b8151156110d75780826040516020016110bf929190612fe1565b60405160208183030381529060405292505050919050565b6110e084611fab565b949350505050565b6011602052816000526040600020818154811061110457600080fd5b90600052602060002001600091509150508054610a4c90612d84565b6001600160a01b03918216600090815260056020908152604080832093909416825291909152205460ff1690565b6001600160a01b0381166000908152601160209081526040808320805482518185028101850190935280835260609492939192909184015b828210156112325783829060005260206000200180546111a590612d84565b80601f01602080910402602001604051908101604052809291908181526020018280546111d190612d84565b801561121e5780601f106111f35761010080835404028352916020019161121e565b820191906000526020600020905b81548152906001019060200180831161120157829003601f168201915b505050505081526020019060010190611186565b505050509050919050565b606061127d6040518060400160405280601f81526020017f47657474696e6720616c6c206e616d65732066726f6d20636f6e74726163740081525061201f565b6007546000816001600160401b0381111561129a5761129a612a21565b6040519080825280602002602001820160405280156112cd57816020015b60608152602001906001900390816112b85790505b50905060005b828110156113fa57600081815260106020526040902080546112f490612d84565b80601f016020809104026020016040519081016040528092919081815260200182805461132090612d84565b801561136d5780601f106113425761010080835404028352916020019161136d565b820191906000526020600020905b81548152906001019060200180831161135057829003601f168201915b505050505082828151811061138457611384613010565b60200260200101819052506113e86040518060400160405280601781526020017f4e616d6520666f7220746f6b656e202564206973202573000000000000000000815250828484815181106113db576113db613010565b6020026020010151612062565b806113f281613026565b9150506112d3565b5092915050565b60006001600160a01b0316600e848460405161141e929190612dbe565b908152604051908190036020019020546001600160a01b03161461145557604051630ea075bf60e21b815260040160405180910390fd5b61145f83836120a9565b611480578282604051637f19f48d60e01b81526004016109ce92919061303f565b600061148d848484610905565b9050803410156114d55760405162461bcd60e51b8152602060048201526013602482015272139bdd08195b9bdd59da081610d4881c185a59606a1b60448201526064016109ce565b60008484600c6040516020016114ed939291906130c6565b604051602081830303815290604052905060006008826009604051602001611517939291906130ed565b60408051601f198184030181526007546020601f8a018190048102850181019093528884529093509160009161156891908a908a908190840183828082843760009201919091525061188392505050565b905060006115758261213f565b905060006115ad86611586876121d1565b8460405160200161159993929190613120565b6040516020818303038152906040526121d1565b90506000816040516020016115c2919061322e565b60405160208183030381529060405290506115dd8c8661233a565b6115e78582612354565b8b600e8c8c6040516115fa929190612dbe565b908152604080516020928190038301902080546001600160a01b0319166001600160a01b03949094169390931790925560008781526010909152206116408b8d83612ee4565b506001600160a01b038c166000908152601160209081526040822080546001810182559083529120016116748b8d83612ee4565b50611683896301e13380612de4565b61168d9042612dfb565b60008681526012602052604081209190915560078054600192906116b2908490612dfb565b90915550506040517f6ba0831d2f62ae5cbf7214bcc1d79c5da1d705f12811efda0beaa840006f874e906116eb908e908e908e90612e37565b60405180910390a1600033611701600234613273565b604051600081818185875af1925050503d806000811461173d576040519150601f19603f3d011682016040523d82523d6000602084013e611742565b606091505b50509050806117935760405162461bcd60e51b815260206004820152601960248201527f4661696c656420746f2073656e6420746f2072656c617965720000000000000060448201526064016109ce565b50505050505050505050505050565b60006a636f6e736f6c652e6c6f679050600080835160208501845afa505050565b60006001600160e01b031982166380ac58cd60e01b14806117f457506001600160e01b03198216635b5e139f60e01b145b8061077b57506301ffc9a760e01b6001600160e01b031983161461077b565b6000818152600260205260408120546001600160a01b03168061077b57604051637e27328960e01b8152600481018490526024016109ce565b600061185733610c8a565b15611869575060131936013560601c90565b61187161239d565b905090565b610b9983838360016123ef565b8051600090819081905b8082101561197d5760008583815181106118a9576118a9613010565b01602001516001600160f81b0319169050600160ff1b8110156118d8576118d1600184612dfb565b925061196a565b600760fd1b6001600160f81b0319821610156118f9576118d1600284612dfb565b600f60fc1b6001600160f81b03198216101561191a576118d1600384612dfb565b601f60fb1b6001600160f81b03198216101561193b576118d1600484612dfb565b603f60fa1b6001600160f81b03198216101561195c576118d1600584612dfb565b611967600684612dfb565b92505b508261197581613026565b93505061188d565b50909392505050565b6000828152600260205260408120546001600160a01b03908116908316156119b3576119b38184866124f5565b6001600160a01b038116156119f1576119d06000856000806123ef565b6001600160a01b038116600090815260036020526040902080546000190190555b6001600160a01b03851615611a20576001600160a01b0385166000908152600360205260409020805460010190555b60008481526002602052604080822080546001600160a01b0319166001600160a01b0389811691821790925591518793918516917fddf252ad1be2c89b69c2b068fc378daa952ba7f163c4a11628f55a4df523b3ef91a4949350505050565b611a8881610cbc565b6001600160a01b0316336001600160a01b031614611af45760405162461bcd60e51b8152602060048201526024808201527f4f6e6c7920746865206f776e65722063616e206465746163682074686520646f60448201526336b0b4b760e11b60648201526084016109ce565b60008181526010602052604081208054611b0d90612d84565b80601f0160208091040260200160405190810160405280929190818152602001828054611b3990612d84565b8015611b865780601f10611b5b57610100808354040283529160200191611b86565b820191906000526020600020905b815481529060010190602001808311611b6957829003601f168201915b5050600a54939450611ba7936001600160a01b0316925085915061083c9050565b600a546040516302ce381960e41b8152600481018490526001600160a01b0390911690632ce3819090602401600060405180830381600087803b158015611bed57600080fd5b505af1158015611c01573d6000803e3d6000fd5b5050600a54611c1d92503391506001600160a01b031684612559565b600a546040516001600160a01b0390911690600e90611c3d908490612e65565b908152604080516020928190038301902080546001600160a01b0319166001600160a01b0394909416939093179092553360009081526011909152908120905b8154811015611d5c578280519060200120828281548110611ca057611ca0613010565b90600052602060002001604051611cb79190613295565b604051809103902003611d4a5781548290611cd4906001906132a1565b81548110611ce457611ce4613010565b90600052602060002001828281548110611d0057611d00613010565b906000526020600020019081611d1691906132b4565b5081805480611d2757611d2761338a565b600190038181906000526020600020016000611d4391906127d3565b9055611d5c565b80611d5481613026565b915050611c7d565b50600a546001600160a01b0316600090815260116020908152604082208054600181018255908352912001611d9183826133a0565b50600a54604080518581526001600160a01b0390921660208301527ff1dbe24879e61808452b27ddd9031b65953e9e42a25d09db99f65668df761dd5910160405180910390a1505050565b6001600160a01b038216611e0e57604051630b61174360e31b81526001600160a01b03831660048201526024016109ce565b6001600160a01b03838116600081815260056020908152604080832094871680845294825291829020805460ff191686151590811790915591519182527f17307eab39ab6107e8899845ad3d59bd9653f200f220920489ca2b5937696c31910160405180910390a3505050565b6001600160a01b0383163b15610a3957826001600160a01b031663150b7a02611ea261184c565b8685856040518563ffffffff1660e01b8152600401611ec49493929190613451565b6020604051808303816000875af1925050508015611eff575060408051601f3d908101601f19168201909252611efc91810190613484565b60015b611f68573d808015611f2d576040519150601f19603f3d011682016040523d82523d6000602084013e611f32565b606091505b508051600003611f6057604051633250574960e11b81526001600160a01b03851660048201526024016109ce565b805181602001fd5b6001600160e01b03198116630a85bd0160e11b14611fa457604051633250574960e11b81526001600160a01b03851660048201526024016109ce565b5050505050565b6060611fb682611813565b506000611fce60408051602081019091526000815290565b90506000815111611fee57604051806020016040528060008152506109a1565b80611ff88461213f565b604051602001612009929190612fe1565b6040516020818303038152906040529392505050565b610ea78160405160240161203391906128a4565b60408051601f198184030181529190526020810180516001600160e01b031663104c13eb60e21b179052612609565b610b9983838360405160240161207a939291906134a1565b60408051601f198184030181529190526020810180516001600160e01b0316635970e08960e01b179052612609565b600060036120ec84848080601f01602080910402602001604051908101604052809392919081815260200183838082843760009201919091525061188392505050565b101580156109a15750600a61213684848080601f01602080910402602001604051908101604052809392919081815260200183838082843760009201919091525061188392505050565b11159392505050565b6060600061214c83612612565b60010190506000816001600160401b0381111561216b5761216b612a21565b6040519080825280601f01601f191660200182016040528015612195576020820181803683370190505b5090508181016020015b600019016f181899199a1a9b1b9c1cb0b131b232b360811b600a86061a8153600a850494508461219f57509392505050565b805160609060008190036121f5575050604080516020810190915260008152919050565b60006003612204836002612dfb565b61220e9190613273565b612219906004612de4565b90506000612228826020612dfb565b6001600160401b0381111561223f5761223f612a21565b6040519080825280601f01601f191660200182016040528015612269576020820181803683370190505b5090506000604051806060016040528060408152602001613542604091399050600181016020830160005b868110156122f5576003818a01810151603f601282901c8116860151600c83901c8216870151600684901c831688015192909316870151600891821b60ff94851601821b92841692909201901b91160160e01b835260049092019101612294565b50600386066001811461230f57600281146123205761232c565b613d3d60f01b60011983015261232c565b603d60f81b6000198301525b505050918152949350505050565b61084e8282604051806020016040528060008152506126ea565b600082815260066020526040902061236c82826133a0565b506040518281527ff8e1a15aba9398e019f0b49df1a4fde98ee17ae345cb5f6b5e2c27f5033e8ce790602001610e9d565b60003660146123ab33610c8a565b80156123b75750808210155b156123e7576000366123c983856132a1565b6123d49282906134cc565b6123dd916134f6565b60601c9250505090565b339250505090565b808061240357506001600160a01b03821615155b156124c557600061241384611813565b90506001600160a01b0383161580159061243f5750826001600160a01b0316816001600160a01b031614155b801561245257506124508184611120565b155b1561247b5760405163a9fbf51f60e01b81526001600160a01b03841660048201526024016109ce565b81156124c35783856001600160a01b0316826001600160a01b03167f8c5be1e5ebec7d5bd14f71427d1e84f3dd0314c0f7b2291e5b200ac8c7c3b92560405160405180910390a45b505b5050600090815260046020526040902080546001600160a01b0319166001600160a01b0392909216919091179055565b612500838383612701565b610b99576001600160a01b03831661252e57604051637e27328960e01b8152600481018290526024016109ce565b60405163177e802f60e01b81526001600160a01b0383166004820152602481018290526044016109ce565b6001600160a01b03821661258357604051633250574960e11b8152600060048201526024016109ce565b600061259183836000611986565b90506001600160a01b0381166125bd57604051637e27328960e01b8152600481018390526024016109ce565b836001600160a01b0316816001600160a01b031614610a39576040516364283d7b60e01b81526001600160a01b03808616600483015260248201849052821660448201526064016109ce565b610ea7816117a2565b60008072184f03e93ff9f4daa797ed6e38ed64bf6a1f0160401b83106126515772184f03e93ff9f4daa797ed6e38ed64bf6a1f0160401b830492506040015b6d04ee2d6d415b85acef8100000000831061267d576d04ee2d6d415b85acef8100000000830492506020015b662386f26fc10000831061269b57662386f26fc10000830492506010015b6305f5e10083106126b3576305f5e100830492506008015b61271083106126c757612710830492506004015b606483106126d9576064830492506002015b600a831061077b5760010192915050565b6126f48383612764565b610b996000848484611e7b565b60006001600160a01b038316158015906110e05750826001600160a01b0316846001600160a01b0316148061273b575061273b8484611120565b806110e05750506000908152600460205260409020546001600160a01b03908116911614919050565b6001600160a01b03821661278e57604051633250574960e11b8152600060048201526024016109ce565b600061279c83836000611986565b90506001600160a01b03811615610b99576040516339e3563760e11b8152600060048201526024016109ce565b6127d161352b565b565b5080546127df90612d84565b6000825580601f106127ef575050565b601f016020900490600052602060002090810190610ea791905b8082111561281d5760008155600101612809565b5090565b6001600160e01b031981168114610ea757600080fd5b60006020828403121561284957600080fd5b81356109a181612821565b60005b8381101561286f578181015183820152602001612857565b50506000910152565b60008151808452612890816020860160208601612854565b601f01601f19169290920160200192915050565b6020815260006109a16020830184612878565b6000602082840312156128c957600080fd5b5035919050565b80356001600160a01b0381168114610d1157600080fd5b600080604083850312156128fa57600080fd5b612903836128d0565b946020939093013593505050565b60008083601f84011261292357600080fd5b5081356001600160401b0381111561293a57600080fd5b60208301915083602082850101111561295257600080fd5b9250929050565b6000806020838503121561296c57600080fd5b82356001600160401b0381111561298257600080fd5b61298e85828601612911565b90969095509350505050565b6000806000604084860312156129af57600080fd5b83356001600160401b038111156129c557600080fd5b6129d186828701612911565b909790965060209590950135949350505050565b6000806000606084860312156129fa57600080fd5b612a03846128d0565b9250612a11602085016128d0565b9150604084013590509250925092565b634e487b7160e01b600052604160045260246000fd5b60006001600160401b0380841115612a5157612a51612a21565b604051601f8501601f19908116603f01168101908282118183101715612a7957612a79612a21565b81604052809350858152868686011115612a9257600080fd5b858560208301376000602087830101525050509392505050565b600060208284031215612abe57600080fd5b81356001600160401b03811115612ad457600080fd5b8201601f81018413612ae557600080fd5b6110e084823560208401612a37565b600080600080600060808688031215612b0c57600080fd5b85356001600160401b03811115612b2257600080fd5b612b2e88828901612911565b9096509450612b419050602087016128d0565b94979396509394604081013594506060013592915050565b600060208284031215612b6b57600080fd5b6109a1826128d0565b60008060408385031215612b8757600080fd5b612b90836128d0565b915060208301358015158114612ba557600080fd5b809150509250929050565b60008060008060808587031215612bc657600080fd5b612bcf856128d0565b9350612bdd602086016128d0565b92506040850135915060608501356001600160401b03811115612bff57600080fd5b8501601f81018713612c1057600080fd5b612c1f87823560208401612a37565b91505092959194509250565b60008060008060408587031215612c4157600080fd5b84356001600160401b0380821115612c5857600080fd5b612c6488838901612911565b90965094506020870135915080821115612c7d57600080fd5b50612c8a87828801612911565b95989497509550505050565b60008060408385031215612ca957600080fd5b612cb2836128d0565b9150612cc0602084016128d0565b90509250929050565b6000602080830181845280855180835260408601915060408160051b870101925083870160005b82811015612d1e57603f19888603018452612d0c858351612878565b94509285019290850190600101612cf0565b5092979650505050505050565b60008060008060608587031215612d4157600080fd5b612d4a856128d0565b935060208501356001600160401b03811115612d6557600080fd5b612d7187828801612911565b9598909750949560400135949350505050565b600181811c90821680612d9857607f821691505b602082108103612db857634e487b7160e01b600052602260045260246000fd5b50919050565b8183823760009101908152919050565b634e487b7160e01b600052601160045260246000fd5b808202811582820484141761077b5761077b612dce565b8082018082111561077b5761077b612dce565b81835281816020850137506000828201602090810191909152601f909101601f19169091010190565b6001600160a01b0384168152604060208201819052600090612e5c9083018486612e0e565b95945050505050565b60008251612e77818460208701612854565b9190910192915050565b601f821115610b9957600081815260208120601f850160051c81016020861015612ea85750805b601f850160051c820191505b81811015612ec757828155600101612eb4565b505050505050565b600019600383901b1c191660019190911b1790565b6001600160401b03831115612efb57612efb612a21565b612f0f83612f098354612d84565b83612e81565b6000601f841160018114612f3d5760008515612f2b5750838201355b612f358682612ecf565b845550611fa4565b600083815260209020601f19861690835b82811015612f6e5786850135825560209485019460019092019101612f4e565b5086821015612f8b5760001960f88860031b161c19848701351681555b505060018560011b0183555050505050565b6001600160a01b0386168152606060208201819052600090612fc29083018688612e0e565b8281036040840152612fd5818587612e0e565b98975050505050505050565b60008351612ff3818460208801612854565b835190830190613007818360208801612854565b01949350505050565b634e487b7160e01b600052603260045260246000fd5b60006001820161303857613038612dce565b5060010190565b6020815260006110e0602083018486612e0e565b6000815461306081612d84565b60018281168015613078576001811461308d576130bc565b60ff19841687528215158302870194506130bc565b8560005260208060002060005b858110156130b35781548a82015290840190820161309a565b50505082870194505b5050505092915050565b828482376000838201601760f91b81526130e36001820185613053565b9695505050505050565b60006130f98286613053565b8451613109818360208901612854565b61311581830186613053565b979650505050505050565b693d913730b6b2911d101160b11b8152835160009061314681600a850160208901612854565b7f222c20226465736372697074696f6e223a20224120646f6d61696e206f6e2074600a918401918201527f68652043726f737356616c7565436861696e20446f6d61696e206e616d652073602a8201527f657276696365222c2022696d616765223a2022646174613a696d6167652f7376604a8201526c19cade1b5b0ed8985cd94d8d0b609a1b606a82015284516131e5816077840160208901612854565b6b1116113632b733ba34111d1160a11b607792909101918201528351613212816083840160208801612854565b61227d60f01b6083929091019182015260850195945050505050565b7f646174613a6170706c69636174696f6e2f6a736f6e3b6261736536342c00000081526000825161326681601d850160208701612854565b91909101601d0192915050565b60008261329057634e487b7160e01b600052601260045260246000fd5b500490565b60006109a18284613053565b8181038181111561077b5761077b612dce565b8181036132bf575050565b6132c98254612d84565b6001600160401b038111156132e0576132e0612a21565b6132f4816132ee8454612d84565b84612e81565b6000601f82116001811461332257600083156133105750848201545b61331a8482612ecf565b855550611fa4565b600085815260209020601f19841690600086815260209020845b8381101561335c578286015482556001958601959091019060200161333c565b508583101561337a5781850154600019600388901b60f8161c191681555b5050505050600190811b01905550565b634e487b7160e01b600052603160045260246000fd5b81516001600160401b038111156133b9576133b9612a21565b6133c7816132ee8454612d84565b602080601f8311600181146133f657600084156133e45750858301515b6133ee8582612ecf565b865550612ec7565b600085815260208120601f198616915b8281101561342557888601518255948401946001909101908401613406565b508582101561337a57939096015160001960f8600387901b161c19169092555050600190811b01905550565b6001600160a01b03858116825284166020820152604081018390526080606082018190526000906130e390830184612878565b60006020828403121561349657600080fd5b81516109a181612821565b6060815260006134b46060830186612878565b84602084015282810360408401526130e38185612878565b600080858511156134dc57600080fd5b838611156134e957600080fd5b5050820193919092039150565b6bffffffffffffffffffffffff1981358181169160148510156135235780818660140360031b1b83161692505b505092915050565b634e487b7160e01b600052605160045260246000fdfe4142434445464748494a4b4c4d4e4f505152535455565758595a6162636465666768696a6b6c6d6e6f707172737475767778797a303132333435363738392b2fa2646970667358221220501d9f960a8f1a1928c99a062d45adb85cfc7f213c2559e6f5fb8b14ea243a5d64736f6c634300081400333c73766720786d6c6e733d22687474703a2f2f7777772e77332e6f72672f323030302f737667222077696474683d2232373022206865696768743d22323730222066696c6c3d226e6f6e65223e3c706174682066696c6c3d2275726c282342292220643d224d302030683237307632373048307a222f3e3c646566733e3c66696c7465722069643d22412220636f6c6f722d696e746572706f6c6174696f6e2d66696c746572733d2273524742222066696c746572556e6974733d227573657253706163654f6e55736522206865696768743d22323730222077696474683d22323730223e3c666544726f70536861646f772064783d2230222064793d22312220737464446576696174696f6e3d22322220666c6f6f642d6f7061636974793d222e323235222077696474683d223230302522206865696768743d2232303025222f3e3c2f66696c7465723e3c2f646566733e3c7061746820643d224d37322e3836332034322e393439632d2e3636382d2e3338372d312e3432362d2e35392d322e3139372d2e3539732d312e3532392e3230342d322e3139372e35396c2d31302e30383120362e3033322d362e383520332e3933342d31302e30383120362e303332632d2e3636382e3338372d312e3432362e35392d322e3139372e3539732d312e3532392d2e3230342d322e3139372d2e35396c2d382e3031332d342e37323161342e353220342e35322030203020312d312e3538392d312e363136632d2e3338342d2e3636352d2e3539342d312e3431382d2e3630382d322e313837762d392e3331632d2e3031332d2e3737352e3138352d312e3533382e3537322d322e32303861342e323520342e323520302030203120312e3632352d312e3539356c372e3838342d342e3539632e3636382d2e33383720312e3432362d2e353920322e3139372d2e353973312e3532392e32303420322e3139372e35396c372e38383420342e353961342e353220342e353220302030203120312e35383920312e363136632e3338342e3636352e35393420312e3431382e36303820322e31383776362e3033326c362e38352d342e303635762d362e303332632e3031332d2e3737352d2e3138352d312e3533382d2e3537322d322e32303861342e323520342e32352030203020302d312e3632352d312e3539354c34312e3435362032342e3539632d2e3636382d2e3338372d312e3432362d2e35392d322e3139372d2e3539732d312e3532392e3230342d322e3139372e35396c2d31342e38363420382e36353561342e323520342e32352030203020302d312e36323520312e353935632d2e3338372e36372d2e35383520312e3433342d2e35373220322e3230387631372e343431632d2e3031332e3737352e31383520312e3533382e35373220322e32303861342e323520342e323520302030203020312e36323520312e3539356c31342e38363420382e363535632e3636382e33383720312e3432362e353920322e3139372e353973312e3532392d2e32303420322e3139372d2e35396c31302e3038312d352e39303120362e38352d342e3036352031302e3038312d352e393031632e3636382d2e33383720312e3432362d2e353920322e3139372d2e353973312e3532392e32303420322e3139372e35396c372e38383420342e353961342e353220342e353220302030203120312e35383920312e363136632e3338342e3636352e35393420312e3431382e36303820322e31383776392e333131632e3031332e3737352d2e31383520312e3533382d2e35373220322e32303861342e323520342e32352030203020312d312e36323520312e3539356c2d372e38383420342e373231632d2e3636382e3338372d312e3432362e35392d322e3139372e3539732d312e3532392d2e3230342d322e3139372d2e35396c2d372e3838342d342e353961342e353220342e35322030203020312d312e3538392d312e363136632d2e3338352d2e3636352d2e3539342d312e3431382d2e3630382d322e313837762d362e3033326c2d362e383520342e30363576362e303332632d2e3031332e3737352e31383520312e3533382e35373220322e32303861342e323520342e323520302030203020312e36323520312e3539356c31342e38363420382e363535632e3636382e33383720312e3432362e353920322e3139372e353973312e3532392d2e32303420322e3139372d2e35396c31342e3836342d382e363535632e3635372d2e33393420312e3230342d2e393520312e3538392d312e363136732e3539342d312e3431382e3630392d322e3138375635352e353338632e3031332d2e3737352d2e3138352d312e3533382d2e3537322d322e32303861342e323520342e32352030203020302d312e3632352d312e3539356c2d31342e3939332d382e3738367a222066696c6c3d2223666666222f3e3c646566733e3c6c696e6561724772616469656e742069643d2242222078313d2230222079313d2230222078323d22323730222079323d2232373022206772616469656e74556e6974733d227573657253706163654f6e557365223e3c73746f702073746f702d636f6c6f723d2223636235656565222f3e3c73746f70206f66667365743d2231222073746f702d636f6c6f723d2223306364376534222073746f702d6f7061636974793d222e3939222f3e3c2f6c696e6561724772616469656e743e3c2f646566733e3c7465787420783d2233322e352220793d223233312220666f6e742d73697a653d223237222066696c6c3d2223666666222066696c7465723d2275726c282341292220666f6e742d66616d696c793d22506c7573204a616b617274612053616e732c44656a6156752053616e732c4e6f746f20436f6c6f7220456d6f6a692c4170706c6520436f6c6f7220456d6f6a692c73616e732d73657269662220666f6e742d7765696768743d22626f6c64223e",
  "devdoc": {
    "errors": {
      "ERC721IncorrectOwner(address,uint256,address)": [
        {
          "details": "Indicates an error related to the ownership over a particular token. Used in transfers.",
          "params": {
            "owner": "Address of the current owner of a token.",
            "sender": "Address whose tokens are being transferred.",
            "tokenId": "Identifier number of a token."
          }
        }
      ],
      "ERC721InsufficientApproval(address,uint256)": [
        {
          "details": "Indicates a failure with the `operator`s approval. Used in transfers.",
          "params": {
            "operator": "Address that may be allowed to operate on tokens without being their owner.",
            "tokenId": "Identifier number of a token."
          }
        }
      ],
      "ERC721InvalidApprover(address)": [
        {
          "details": "Indicates a failure with the `approver` of a token to be approved. Used in approvals.",
          "params": {
            "approver": "Address initiating an approval operation."
          }
        }
      ],
      "ERC721InvalidOperator(address)": [
        {
          "details": "Indicates a failure with the `operator` to be approved. Used in approvals.",
          "params": {
            "operator": "Address that may be allowed to operate on tokens without being their owner."
          }
        }
      ],
      "ERC721InvalidOwner(address)": [
        {
          "details": "Indicates that an address can't be an owner. For example, `address(0)` is a forbidden owner in EIP-20. Used in balance queries.",
          "params": {
            "owner": "Address of the current owner of a token."
          }
        }
      ],
      "ERC721InvalidReceiver(address)": [
        {
          "details": "Indicates a failure with the token `receiver`. Used in transfers.",
          "params": {
            "receiver": "Address to which tokens are being transferred."
          }
        }
      ],
      "ERC721InvalidSender(address)": [
        {
          "details": "Indicates a failure with the token `sender`. Used in transfers.",
          "params": {
            "sender": "Address whose tokens are being transferred."
          }
        }
      ],
      "ERC721NonexistentToken(uint256)": [
        {
          "details": "Indicates a `tokenId` whose `owner` is the zero address.",
          "params": {
            "tokenId": "Identifier number of a token."
          }
        }
      ]
    },
    "events": {
      "Approval(address,address,uint256)": {
        "details": "Emitted when `owner` enables `approved` to manage the `tokenId` token."
      },
      "ApprovalForAll(address,address,bool)": {
        "details": "Emitted when `owner` enables or disables (`approved`) `operator` to manage all of its assets."
      },
      "BatchMetadataUpdate(uint256,uint256)": {
        "details": "This event emits when the metadata of a range of tokens is changed. So that the third-party platforms such as NFT market could timely update the images and related attributes of the NFTs."
      },
      "MetadataUpdate(uint256)": {
        "details": "This event emits when the metadata of a token is changed. So that the third-party platforms such as NFT market could timely update the images and related attributes of the NFT."
      },
      "Transfer(address,address,uint256)": {
        "details": "Emitted when `tokenId` token is transferred from `from` to `to`."
      }
    },
    "kind": "dev",
    "methods": {
      "approve(address,uint256)": {
        "details": "See {IERC721-approve}."
      },
      "balanceOf(address)": {
        "details": "See {IERC721-balanceOf}."
      },
      "constructor": {
        "params": {
          "_tld": ""
        }
      },
      "getAddress(string)": {
        "params": {
          "name": ""
        }
      },
      "getApproved(uint256)": {
        "details": "See {IERC721-getApproved}."
      },
      "getRecord(string)": {
        "params": {
          "name": ""
        }
      },
      "isApprovedForAll(address,address)": {
        "details": "See {IERC721-isApprovedForAll}."
      },
      "isTrustedForwarder(address)": {
        "details": "Indicates whether any particular address is the trusted forwarder."
      },
      "name()": {
        "details": "See {IERC721Metadata-name}."
      },
      "ownerOf(uint256)": {
        "details": "See {IERC721-ownerOf}."
      },
      "price(string,uint256)": {
        "params": {
          "_years": "()",
          "name": ""
        }
      },
      "register(address,string,uint256)": {
        "params": {
          "_years": "()",
          "name": "",
          "to": ""
        }
      },
      "safeTransferFrom(address,address,uint256)": {
        "details": "See {IERC721-safeTransferFrom}."
      },
      "safeTransferFrom(address,address,uint256,bytes)": {
        "details": "See {IERC721-safeTransferFrom}."
      },
      "setApprovalForAll(address,bool)": {
        "details": "See {IERC721-setApprovalForAll}."
      },
      "setRecord(string,string)": {
        "params": {
          "name": "",
          "record": "ENS"
        }
      },
      "supportsInterface(bytes4)": {
        "details": "See {IERC165-supportsInterface}"
      },
      "symbol()": {
        "details": "See {IERC721Metadata-symbol}."
      },
      "tokenURI(uint256)": {
        "details": "See {IERC721Metadata-tokenURI}."
      },
      "transferFrom(address,address,uint256)": {
        "details": "See {IERC721-transferFrom}."
      },
      "trustedForwarder()": {
        "details": "Returns the address of the trusted forwarder."
      }
    },
    "version": 1
  },
  "userdoc": {
    "kind": "user",
    "methods": {
      "checkExpiration(uint256)": {
        "notice": "burn"
      },
      "checkRegistered(string)": {
        "notice": "checkRegistered "
      },
      "constructor": {
        "notice": ""
      },
      "getAddress(string)": {
        "notice": ""
      },
      "getAllNames()": {
        "notice": ""
      },
      "getDomainsByOwner(address)": {
        "notice": ""
      },
      "getRecord(string)": {
        "notice": "ENS"
      },
      "isOwner()": {
        "notice": "owner address"
      },
      "price(string,uint256)": {
        "notice": ""
      },
      "register(address,string,uint256)": {
        "notice": ""
      },
      "setRecord(string,string)": {
        "notice": ""
      },
      "updateAddress(string,address,uint256,uint256)": {
        "notice": "  "
      },
      "withdraw()": {
        "notice": ""
      }
    },
    "notice": "Domains Cotract",
    "version": 1
  },
  "storageLayout": {
    "storage": [
      {
        "astId": 1024,
        "contract": "contracts/Domains.sol:Domains",
        "label": "_name",
        "offset": 0,
        "slot": "0",
        "type": "t_string_storage"
      },
      {
        "astId": 1026,
        "contract": "contracts/Domains.sol:Domains",
        "label": "_symbol",
        "offset": 0,
        "slot": "1",
        "type": "t_string_storage"
      },
      {
        "astId": 1030,
        "contract": "contracts/Domains.sol:Domains",
        "label": "_owners",
        "offset": 0,
        "slot": "2",
        "type": "t_mapping(t_uint256,t_address)"
      },
      {
        "astId": 1034,
        "contract": "contracts/Domains.sol:Domains",
        "label": "_balances",
        "offset": 0,
        "slot": "3",
        "type": "t_mapping(t_address,t_uint256)"
      },
      {
        "astId": 1038,
        "contract": "contracts/Domains.sol:Domains",
        "label": "_tokenApprovals",
        "offset": 0,
        "slot": "4",
        "type": "t_mapping(t_uint256,t_address)"
      },
      {
        "astId": 1044,
        "contract": "contracts/Domains.sol:Domains",
        "label": "_operatorApprovals",
        "offset": 0,
        "slot": "5",
        "type": "t_mapping(t_address,t_mapping(t_address,t_bool))"
      },
      {
        "astId": 2163,
        "contract": "contracts/Domains.sol:Domains",
        "label": "_tokenURIs",
        "offset": 0,
        "slot": "6",
        "type": "t_mapping(t_uint256,t_string_storage)"
      },
      {
        "astId": 5152,
        "contract": "contracts/Domains.sol:Domains",
        "label": "_tokenIdCounter",
        "offset": 0,
        "slot": "7",
        "type": "t_uint256"
      },
      {
        "astId": 5155,
        "contract": "contracts/Domains.sol:Domains",
        "label": "svgPartOne",
        "offset": 0,
        "slot": "8",
        "type": "t_string_storage"
      },
      {
        "astId": 5158,
        "contract": "contracts/Domains.sol:Domains",
        "label": "svgPartTwo",
        "offset": 0,
        "slot": "9",
        "type": "t_string_storage"
      },
      {
        "astId": 5160,
        "contract": "contracts/Domains.sol:Domains",
        "label": "marketplaceAddress",
        "offset": 0,
        "slot": "10",
        "type": "t_address"
      },
      {
        "astId": 5162,
        "contract": "contracts/Domains.sol:Domains",
        "label": "relayerAddress",
        "offset": 0,
        "slot": "11",
        "type": "t_address"
      },
      {
        "astId": 5164,
        "contract": "contracts/Domains.sol:Domains",
        "label": "tld",
        "offset": 0,
        "slot": "12",
        "type": "t_string_storage"
      },
      {
        "astId": 5166,
        "contract": "contracts/Domains.sol:Domains",
        "label": "owner",
        "offset": 0,
        "slot": "13",
        "type": "t_address_payable"
      },
      {
        "astId": 5170,
        "contract": "contracts/Domains.sol:Domains",
        "label": "domains",
        "offset": 0,
        "slot": "14",
        "type": "t_mapping(t_string_memory_ptr,t_address)"
      },
      {
        "astId": 5174,
        "contract": "contracts/Domains.sol:Domains",
        "label": "records",
        "offset": 0,
        "slot": "15",
        "type": "t_mapping(t_string_memory_ptr,t_string_storage)"
      },
      {
        "astId": 5178,
        "contract": "contracts/Domains.sol:Domains",
        "label": "names",
        "offset": 0,
        "slot": "16",
        "type": "t_mapping(t_uint256,t_string_storage)"
      },
      {
        "astId": 5183,
        "contract": "contracts/Domains.sol:Domains",
        "label": "ownerDomains",
        "offset": 0,
        "slot": "17",
        "type": "t_mapping(t_address,t_array(t_string_storage)dyn_storage)"
      },
      {
        "astId": 5187,
        "contract": "contracts/Domains.sol:Domains",
        "label": "expirationDates",
        "offset": 0,
        "slot": "18",
        "type": "t_mapping(t_uint256,t_uint256)"
      }
    ],
    "types": {
      "t_address": {
        "encoding": "inplace",
        "label": "address",
        "numberOfBytes": "20"
      },
      "t_address_payable": {
        "encoding": "inplace",
        "label": "address payable",
        "numberOfBytes": "20"
      },
      "t_array(t_string_storage)dyn_storage": {
        "base": "t_string_storage",
        "encoding": "dynamic_array",
        "label": "string[]",
        "numberOfBytes": "32"
      },
      "t_bool": {
        "encoding": "inplace",
        "label": "bool",
        "numberOfBytes": "1"
      },
      "t_mapping(t_address,t_array(t_string_storage)dyn_storage)": {
        "encoding": "mapping",
        "key": "t_address",
        "label": "mapping(address => string[])",
        "numberOfBytes": "32",
        "value": "t_array(t_string_storage)dyn_storage"
      },
      "t_mapping(t_address,t_bool)": {
        "encoding": "mapping",
        "key": "t_address",
        "label": "mapping(address => bool)",
        "numberOfBytes": "32",
        "value": "t_bool"
      },
      "t_mapping(t_address,t_mapping(t_address,t_bool))": {
        "encoding": "mapping",
        "key": "t_address",
        "label": "mapping(address => mapping(address => bool))",
        "numberOfBytes": "32",
        "value": "t_mapping(t_address,t_bool)"
      },
      "t_mapping(t_address,t_uint256)": {
        "encoding": "mapping",
        "key": "t_address",
        "label": "mapping(address => uint256)",
        "numberOfBytes": "32",
        "value": "t_uint256"
      },
      "t_mapping(t_string_memory_ptr,t_address)": {
        "encoding": "mapping",
        "key": "t_string_memory_ptr",
        "label": "mapping(string => address)",
        "numberOfBytes": "32",
        "value": "t_address"
      },
      "t_mapping(t_string_memory_ptr,t_string_storage)": {
        "encoding": "mapping",
        "key": "t_string_memory_ptr",
        "label": "mapping(string => string)",
        "numberOfBytes": "32",
        "value": "t_string_storage"
      },
      "t_mapping(t_uint256,t_address)": {
        "encoding": "mapping",
        "key": "t_uint256",
        "label": "mapping(uint256 => address)",
        "numberOfBytes": "32",
        "value": "t_address"
      },
      "t_mapping(t_uint256,t_string_storage)": {
        "encoding": "mapping",
        "key": "t_uint256",
        "label": "mapping(uint256 => string)",
        "numberOfBytes": "32",
        "value": "t_string_storage"
      },
      "t_mapping(t_uint256,t_uint256)": {
        "encoding": "mapping",
        "key": "t_uint256",
        "label": "mapping(uint256 => uint256)",
        "numberOfBytes": "32",
        "value": "t_uint256"
      },
      "t_string_memory_ptr": {
        "encoding": "bytes",
        "label": "string",
        "numberOfBytes": "32"
      },
      "t_string_storage": {
        "encoding": "bytes",
        "label": "string",
        "numberOfBytes": "32"
      },
      "t_uint256": {
        "encoding": "inplace",
        "label": "uint256",
        "numberOfBytes": "32"
      }
    }
  }
}