{
  "address": "0x3c955E552Fd383435765313330301c23f014e0a6",
  "abi": [
    {
      "inputs": [],
      "stateMutability": "nonpayable",
      "type": "constructor"
    },
    {
      "inputs": [
        {
          "internalType": "address",
          "name": "owner",
          "type": "address"
        }
      ],
      "name": "OwnableInvalidOwner",
      "type": "error"
    },
    {
      "inputs": [
        {
          "internalType": "address",
          "name": "account",
          "type": "address"
        }
      ],
      "name": "OwnableUnauthorizedAccount",
      "type": "error"
    },
    {
      "inputs": [],
      "name": "ReentrancyGuardReentrantCall",
      "type": "error"
    },
    {
      "anonymous": false,
      "inputs": [
        {
          "indexed": true,
          "internalType": "uint256",
          "name": "tokenId",
          "type": "uint256"
        },
        {
          "indexed": true,
          "internalType": "address",
          "name": "seller",
          "type": "address"
        }
      ],
      "name": "Canceled",
      "type": "event"
    },
    {
      "anonymous": false,
      "inputs": [
        {
          "indexed": true,
          "internalType": "address",
          "name": "sender",
          "type": "address"
        },
        {
          "indexed": false,
          "internalType": "uint256",
          "name": "amount",
          "type": "uint256"
        }
      ],
      "name": "FallbackReceived",
      "type": "event"
    },
    {
      "anonymous": false,
      "inputs": [
        {
          "indexed": true,
          "internalType": "uint256",
          "name": "tokenId",
          "type": "uint256"
        },
        {
          "indexed": true,
          "internalType": "address",
          "name": "seller",
          "type": "address"
        }
      ],
      "name": "Listed",
      "type": "event"
    },
    {
      "anonymous": false,
      "inputs": [
        {
          "indexed": true,
          "internalType": "address",
          "name": "previousOwner",
          "type": "address"
        },
        {
          "indexed": true,
          "internalType": "address",
          "name": "newOwner",
          "type": "address"
        }
      ],
      "name": "OwnershipTransferred",
      "type": "event"
    },
    {
      "anonymous": false,
      "inputs": [
        {
          "indexed": true,
          "internalType": "address",
          "name": "sender",
          "type": "address"
        },
        {
          "indexed": false,
          "internalType": "uint256",
          "name": "amount",
          "type": "uint256"
        }
      ],
      "name": "Received",
      "type": "event"
    },
    {
      "anonymous": false,
      "inputs": [
        {
          "indexed": true,
          "internalType": "uint256",
          "name": "tokenId",
          "type": "uint256"
        },
        {
          "indexed": true,
          "internalType": "address",
          "name": "buyer",
          "type": "address"
        },
        {
          "indexed": false,
          "internalType": "uint256",
          "name": "price",
          "type": "uint256"
        }
      ],
      "name": "Sold",
      "type": "event"
    },
    {
      "stateMutability": "payable",
      "type": "fallback"
    },
    {
      "inputs": [
        {
          "internalType": "uint256",
          "name": "tokenId",
          "type": "uint256"
        },
        {
          "internalType": "string",
          "name": "name",
          "type": "string"
        },
        {
          "internalType": "uint256",
          "name": "duration",
          "type": "uint256"
        }
      ],
      "name": "buyItem",
      "outputs": [],
      "stateMutability": "payable",
      "type": "function"
    },
    {
      "inputs": [
        {
          "internalType": "uint256",
          "name": "tokenId",
          "type": "uint256"
        }
      ],
      "name": "cancelListing",
      "outputs": [],
      "stateMutability": "nonpayable",
      "type": "function"
    },
    {
      "inputs": [],
      "name": "domainsContractAddress",
      "outputs": [
        {
          "internalType": "address",
          "name": "",
          "type": "address"
        }
      ],
      "stateMutability": "view",
      "type": "function"
    },
    {
      "inputs": [],
      "name": "getAllListings",
      "outputs": [
        {
          "components": [
            {
              "internalType": "uint256",
              "name": "tokenId",
              "type": "uint256"
            },
            {
              "internalType": "address",
              "name": "seller",
              "type": "address"
            }
          ],
          "internalType": "struct NFTMarketplace.Listing[]",
          "name": "",
          "type": "tuple[]"
        }
      ],
      "stateMutability": "view",
      "type": "function"
    },
    {
      "inputs": [
        {
          "internalType": "uint256",
          "name": "tokenId",
          "type": "uint256"
        }
      ],
      "name": "getListing",
      "outputs": [
        {
          "components": [
            {
              "internalType": "uint256",
              "name": "tokenId",
              "type": "uint256"
            },
            {
              "internalType": "address",
              "name": "seller",
              "type": "address"
            }
          ],
          "internalType": "struct NFTMarketplace.Listing",
          "name": "",
          "type": "tuple"
        }
      ],
      "stateMutability": "view",
      "type": "function"
    },
    {
      "inputs": [
        {
          "internalType": "uint256",
          "name": "tokenId",
          "type": "uint256"
        }
      ],
      "name": "listItem",
      "outputs": [],
      "stateMutability": "nonpayable",
      "type": "function"
    },
    {
      "inputs": [
        {
          "internalType": "uint256",
          "name": "",
          "type": "uint256"
        }
      ],
      "name": "listedTokenIds",
      "outputs": [
        {
          "internalType": "uint256",
          "name": "",
          "type": "uint256"
        }
      ],
      "stateMutability": "view",
      "type": "function"
    },
    {
      "inputs": [
        {
          "internalType": "uint256",
          "name": "",
          "type": "uint256"
        }
      ],
      "name": "listings",
      "outputs": [
        {
          "internalType": "uint256",
          "name": "tokenId",
          "type": "uint256"
        },
        {
          "internalType": "address",
          "name": "seller",
          "type": "address"
        }
      ],
      "stateMutability": "view",
      "type": "function"
    },
    {
      "inputs": [],
      "name": "owner",
      "outputs": [
        {
          "internalType": "address",
          "name": "",
          "type": "address"
        }
      ],
      "stateMutability": "view",
      "type": "function"
    },
    {
      "inputs": [],
      "name": "renounceOwnership",
      "outputs": [],
      "stateMutability": "nonpayable",
      "type": "function"
    },
    {
      "inputs": [
        {
          "internalType": "address",
          "name": "_domainsContractAddress",
          "type": "address"
        }
      ],
      "name": "setDomainsContract",
      "outputs": [],
      "stateMutability": "nonpayable",
      "type": "function"
    },
    {
      "inputs": [
        {
          "internalType": "address",
          "name": "newOwner",
          "type": "address"
        }
      ],
      "name": "transferOwnership",
      "outputs": [],
      "stateMutability": "nonpayable",
      "type": "function"
    },
    {
      "inputs": [],
      "name": "withdraw",
      "outputs": [],
      "stateMutability": "nonpayable",
      "type": "function"
    },
    {
      "stateMutability": "payable",
      "type": "receive"
    }
  ],
  "transactionHash": "0xcbb0b2041bce437247d62dc072e49e6173c29b2e78e78e390776ecf3490dcb91",
  "args": [],
  "numDeployments": 3,
  "solcInputHash": "f483995667f1b695b9f9af3a63e738c6",
  "bytecode": "0x608060405234801561001057600080fd5b506001600055338061003c57604051631e4fbdf760e01b81526000600482015260240160405180910390fd5b6100458161004b565b5061009d565b600180546001600160a01b038381166001600160a01b0319831681179093556040519116919082907f8be0079c531659141344cd1fd0a4f28419497f9722a3daafe3b4186f6b6457e090600090a35050565b611005806100ac6000396000f3fe6080604052600436106100c65760003560e01c8063715018a61161007f578063ae73ccec11610059578063ae73ccec1461029e578063b6feadc8146102c0578063de74e57b146102ee578063f2fde38b1461034857610103565b8063715018a61461024b57806389913a9c146102605780638da5cb5b1461028057610103565b80630bfd4c0714610135578063107a274a146101725780632ce38190146101e1578063305a67a8146102035780633ccfd60b146102235780634a7a3a2f1461023857610103565b366101035760405134815233907f88a5966d370b9919b20f3e2c13ff65706f196a4e32cc2c12bf57088f88525874906020015b60405180910390a2005b60405134815233907f50780da79649c77c3362903a681320ab494fb174e23e597f79463f264603689e906020016100f9565b34801561014157600080fd5b50600254610155906001600160a01b031681565b6040516001600160a01b0390911681526020015b60405180910390f35b34801561017e57600080fd5b506101d461018d366004610cd8565b604080518082019091526000808252602082015250600090815260046020908152604091829020825180840190935280548352600101546001600160a01b03169082015290565b6040516101699190610cf1565b3480156101ed57600080fd5b506102016101fc366004610cd8565b610368565b005b34801561020f57600080fd5b5061020161021e366004610cd8565b6104e7565b34801561022f57600080fd5b506102016105ca565b610201610246366004610d13565b610670565b34801561025757600080fd5b50610201610970565b34801561026c57600080fd5b5061020161027b366004610daa565b610984565b34801561028c57600080fd5b506001546001600160a01b0316610155565b3480156102aa57600080fd5b506102b36109ae565b6040516101699190610dce565b3480156102cc57600080fd5b506102e06102db366004610cd8565b610ab1565b604051908152602001610169565b3480156102fa57600080fd5b5061032b610309366004610cd8565b600460205260009081526040902080546001909101546001600160a01b031682565b604080519283526001600160a01b03909116602083015201610169565b34801561035457600080fd5b50610201610363366004610daa565b610ad2565b610370610b0d565b60025460405163020604bf60e21b81526004810183905230916001600160a01b03169063081812fc90602401602060405180830381865afa1580156103b9573d6000803e3d6000fd5b505050506040513d601f19601f820116820180604052508101906103dd9190610e2e565b6001600160a01b0316146104385760405162461bcd60e51b815260206004820152601860248201527f4d61726b6574706c616365206e6f7420617070726f766564000000000000000060448201526064015b60405180910390fd5b604080518082018252828152336020808301828152600086815260049092528482209351845551600193840180546001600160a01b0319166001600160a01b0390921691909117905560038054938401815581527fc2575a0e9e593c00f959f8c92f12db2869c3395a3b0502d05e2516446f71f85b909201849055915183917ff4e4cd593fa99cef6b200fb8c03ceac5984743e70e112f4a2f035e79af3c0c5991a36104e46001600055565b50565b6104ef610b0d565b600081815260046020908152604091829020825180840190935280548352600101546001600160a01b031690820181905233146105675760405162461bcd60e51b81526020600482015260166024820152752cb7ba9030b932903737ba103a34329039b2b63632b960511b604482015260640161042f565b600082815260046020526040812090815560010180546001600160a01b031916905561059282610b37565b604051339083907fba05e869a56a216a7344a605ccad13464848815ad8bdf8d93ad788963a3cfdac90600090a3506104e46001600055565b6105d2610bef565b6040514790600090339083908381818185875af1925050503d8060008114610616576040519150601f19603f3d011682016040523d82523d6000602084013e61061b565b606091505b505090508061066c5760405162461bcd60e51b815260206004820152601860248201527f4661696c656420746f2077697468647261772045746865720000000000000000604482015260640161042f565b5050565b610678610b0d565b60008481526004602090815260409182902082518084018452815481526001909101546001600160a01b0316818301908152835180850190945260128452716c697374696e672e73656c6c65723a20257360701b92840192909252905190916106e091610c1c565b60208101516001600160a01b031661072c5760405162461bcd60e51b815260206004820152600f60248201526e125d195b481b9bdd081b1a5cdd1959608a1b604482015260640161042f565b60025460405162cdcc4d60e51b81526000916001600160a01b0316906319b989a09061076090889088908890600401610e74565b602060405180830381865afa15801561077d573d6000803e3d6000fd5b505050506040513d601f19601f820116820180604052508101906107a19190610e98565b9050803410156107eb5760405162461bcd60e51b8152602060048201526015602482015274139bdd08195b9bdd59da08115d1a195c881cd95b9d605a1b604482015260640161042f565b6020820151600254604051630239bf0d60e51b81526001600160a01b0390911690634737e1a090610828908990899033908d908b90600401610eb1565b600060405180830381600087803b15801561084257600080fd5b505af1158015610856573d6000803e3d6000fd5b5050600254604051632142170760e11b8152306004820152336024820152604481018b90526001600160a01b0390911692506342842e0e9150606401600060405180830381600087803b1580156108ac57600080fd5b505af11580156108c0573d6000803e3d6000fd5b50506040516001600160a01b038416925084156108fc02915084906000818181858888f193505050501580156108fa573d6000803e3d6000fd5b50600087815260046020526040812090815560010180546001600160a01b031916905561092687610b37565b604051828152339088907f66f5cd880edf48cdde6c966e5da0784fcc4c5e85572b8b3b62c4357798d447d79060200160405180910390a350505061096a6001600055565b50505050565b610978610bef565b6109826000610c61565b565b61098c610bef565b600280546001600160a01b0319166001600160a01b0392909216919091179055565b60035460609060009067ffffffffffffffff8111156109cf576109cf610eeb565b604051908082528060200260200182016040528015610a1457816020015b60408051808201909152600080825260208201528152602001906001900390816109ed5790505b50905060005b600354811015610aab576004600060038381548110610a3b57610a3b610f01565b600091825260208083209091015483528281019390935260409182019020815180830190925280548252600101546001600160a01b0316918101919091528251839083908110610a8d57610a8d610f01565b60200260200101819052508080610aa390610f2d565b915050610a1a565b50919050565b60038181548110610ac157600080fd5b600091825260209091200154905081565b610ada610bef565b6001600160a01b038116610b0457604051631e4fbdf760e01b81526000600482015260240161042f565b6104e481610c61565b600260005403610b3057604051633ee5aeb560e01b815260040160405180910390fd5b6002600055565b60005b60035481101561066c578160038281548110610b5857610b58610f01565b906000526020600020015403610bdd5760038054610b7890600190610f46565b81548110610b8857610b88610f01565b906000526020600020015460038281548110610ba657610ba6610f01565b6000918252602090912001556003805480610bc357610bc3610f59565b600190038181906000526020600020016000905590555050565b80610be781610f2d565b915050610b3a565b6001546001600160a01b031633146109825760405163118cdaa760e01b815233600482015260240161042f565b61066c8282604051602401610c32929190610f6f565b60408051601f198184030181529190526020810180516001600160e01b031663319af33360e01b179052610cb3565b600180546001600160a01b038381166001600160a01b0319831681179093556040519116919082907f8be0079c531659141344cd1fd0a4f28419497f9722a3daafe3b4186f6b6457e090600090a35050565b6104e48160006a636f6e736f6c652e6c6f679050600080835160208501845afa505050565b600060208284031215610cea57600080fd5b5035919050565b815181526020808301516001600160a01b031690820152604081015b92915050565b60008060008060608587031215610d2957600080fd5b84359350602085013567ffffffffffffffff80821115610d4857600080fd5b818701915087601f830112610d5c57600080fd5b813581811115610d6b57600080fd5b886020828501011115610d7d57600080fd5b95986020929092019750949560400135945092505050565b6001600160a01b03811681146104e457600080fd5b600060208284031215610dbc57600080fd5b8135610dc781610d95565b9392505050565b602080825282518282018190526000919060409081850190868401855b82811015610e2157610e11848351805182526020908101516001600160a01b0316910152565b9284019290850190600101610deb565b5091979650505050505050565b600060208284031215610e4057600080fd5b8151610dc781610d95565b81835281816020850137506000828201602090810191909152601f909101601f19169091010190565b604081526000610e88604083018587610e4b565b9050826020830152949350505050565b600060208284031215610eaa57600080fd5b5051919050565b608081526000610ec5608083018789610e4b565b6001600160a01b0395909516602083015250604081019290925260609091015292915050565b634e487b7160e01b600052604160045260246000fd5b634e487b7160e01b600052603260045260246000fd5b634e487b7160e01b600052601160045260246000fd5b600060018201610f3f57610f3f610f17565b5060010190565b81810381811115610d0d57610d0d610f17565b634e487b7160e01b600052603160045260246000fd5b604081526000835180604084015260005b81811015610f9d5760208187018101516060868401015201610f80565b50600060608285018101919091526001600160a01b03949094166020840152601f01601f19169091019091019291505056fea26469706673582212200d5d4aa8140d75f4a902222cee6d438f675796204d67b2e625ffb13166a9dd2364736f6c63430008140033",
  "devdoc": {
    "errors": {
      "OwnableInvalidOwner(address)": [
        {
          "details": "The owner is not a valid owner account. (eg. `address(0)`)"
        }
      ],
      "OwnableUnauthorizedAccount(address)": [
        {
          "details": "The caller account is not authorized to perform an operation."
        }
      ],
      "ReentrancyGuardReentrantCall()": [
        {
          "details": "Unauthorized reentrant call."
        }
      ]
    },
    "kind": "dev",
    "methods": {
      "buyItem(uint256,string,uint256)": {
        "params": {
          "duration": "",
          "name": "",
          "tokenId": "ID"
        }
      },
      "cancelListing(uint256)": {
        "params": {
          "tokenId": "ID"
        }
      },
      "getListing(uint256)": {
        "params": {
          "tokenId": "ID"
        }
      },
      "listItem(uint256)": {
        "params": {
          "tokenId": "ID"
        }
      },
      "owner()": {
        "details": "Returns the address of the current owner."
      },
      "renounceOwnership()": {
        "details": "Leaves the contract without owner. It will not be possible to call `onlyOwner` functions. Can only be called by the current owner. NOTE: Renouncing ownership will leave the contract without an owner, thereby disabling any functionality that is only available to the owner."
      },
      "setDomainsContract(address)": {
        "params": {
          "_domainsContractAddress": ""
        }
      },
      "transferOwnership(address)": {
        "details": "Transfers ownership of the contract to a new account (`newOwner`). Can only be called by the current owner."
      }
    },
    "version": 1
  },
  "userdoc": {
    "kind": "user",
    "methods": {
      "buyItem(uint256,string,uint256)": {
        "notice": "NFT"
      },
      "cancelListing(uint256)": {
        "notice": "NFT"
      },
      "constructor": {
        "notice": ""
      },
      "getAllListings()": {
        "notice": ""
      },
      "getListing(uint256)": {
        "notice": "NFT"
      },
      "listItem(uint256)": {
        "notice": "NFT"
      },
      "setDomainsContract(address)": {
        "notice": "Domains"
      },
      "withdraw()": {
        "notice": ""
      }
    },
    "version": 1
  },
  "storageLayout": {
    "storage": [
      {
        "astId": 2651,
        "contract": "contracts/NFTMarketplace.sol:NFTMarketplace",
        "label": "_status",
        "offset": 0,
        "slot": "0",
        "type": "t_uint256"
      },
      {
        "astId": 8,
        "contract": "contracts/NFTMarketplace.sol:NFTMarketplace",
        "label": "_owner",
        "offset": 0,
        "slot": "1",
        "type": "t_address"
      },
      {
        "astId": 6080,
        "contract": "contracts/NFTMarketplace.sol:NFTMarketplace",
        "label": "domainsContractAddress",
        "offset": 0,
        "slot": "2",
        "type": "t_address"
      },
      {
        "astId": 6083,
        "contract": "contracts/NFTMarketplace.sol:NFTMarketplace",
        "label": "listedTokenIds",
        "offset": 0,
        "slot": "3",
        "type": "t_array(t_uint256)dyn_storage"
      },
      {
        "astId": 6088,
        "contract": "contracts/NFTMarketplace.sol:NFTMarketplace",
        "label": "listings",
        "offset": 0,
        "slot": "4",
        "type": "t_mapping(t_uint256,t_struct(Listing)6078_storage)"
      }
    ],
    "types": {
      "t_address": {
        "encoding": "inplace",
        "label": "address",
        "numberOfBytes": "20"
      },
      "t_array(t_uint256)dyn_storage": {
        "base": "t_uint256",
        "encoding": "dynamic_array",
        "label": "uint256[]",
        "numberOfBytes": "32"
      },
      "t_mapping(t_uint256,t_struct(Listing)6078_storage)": {
        "encoding": "mapping",
        "key": "t_uint256",
        "label": "mapping(uint256 => struct NFTMarketplace.Listing)",
        "numberOfBytes": "32",
        "value": "t_struct(Listing)6078_storage"
      },
      "t_struct(Listing)6078_storage": {
        "encoding": "inplace",
        "label": "struct NFTMarketplace.Listing",
        "members": [
          {
            "astId": 6075,
            "contract": "contracts/NFTMarketplace.sol:NFTMarketplace",
            "label": "tokenId",
            "offset": 0,
            "slot": "0",
            "type": "t_uint256"
          },
          {
            "astId": 6077,
            "contract": "contracts/NFTMarketplace.sol:NFTMarketplace",
            "label": "seller",
            "offset": 0,
            "slot": "1",
            "type": "t_address"
          }
        ],
        "numberOfBytes": "64"
      },
      "t_uint256": {
        "encoding": "inplace",
        "label": "uint256",
        "numberOfBytes": "32"
      }
    }
  }
}